:020000040800F2
:10000000A8040020010100082501000827010008BC
:10001000290100082B0100082D0100080000000044
:100020000000000000000000000000002F01000898
:10003000310100080000000033010008350100080C
:1000400037010008370100083701000837010008B0
:1000500037010008370100083701000837010008A0
:100060003701000837010008370100083701000890
:100070003701000837010008370100083701000880
:100080003701000837010008370100083701000870
:100090003701000837010008370100083701000860
:1000A00037010008A310000837010008090F0008F5
:1000B000BD100008E1120008911400083701000883
:1000C0003701000837010008370100083701000830
:1000D0003701000837010008370100083701000820
:1000E000370100083701000837010008DFF80CD09D
:1000F00001F074FE00480047411E0008A8040020DB
:100100000D488047DFF83400016841F4E0210160C8
:10011000BFF34F8FDFF82800DFF8281001600A488E
:1001200000477047FEE7FEE7FEE7FEE7FEE7FEE773
:10013000FEE7FEE7FEE7FEE72301000824ED00E00E
:100140000CED00E00003FA05ED000008014601296E
:1001500001D1002231E0B1F5807F01DD012200E014
:100160000022D21D802901DD012300E000231A4472
:10017000402901DD012300E000231A44102901DD9C
:10018000012300E000231A44082901DD012300E0D7
:1001900000231A44042901DD012300E000231A444E
:1001A000022901DD012300E000231A44012901DDB9
:1001B000012300E000231A4412011046702800D1E8
:1001C0000020704710B583202C490860002048604B
:1001D00088602B4848600120FFF7B8FF274949682D
:1001E0000843264948600020264908600846006800
:1001F00040F0020008602148006840F480301F4948
:10020000086000BF1D48006810F4003FFAD01B488A
:10021000006840F080701949086000BF1748006806
:1002200010F0007FFAD01548406820F00300134911
:1002300048600846406840F0020048600846406850
:1002400040F4800048600F48006840F010000D49FD
:10025000086010BD01460C48814202D00B48814223
:1002600001D10B4870470A48FCE709487047094824
:100270007047074870470848704700000010024068
:1002800000841D0000200240002C01400034014089
:1002900000A24A0400512502001BB7002DE9F041DD
:1002A0000446584FBC4207D1574FBF6947F0040777
:1002B000DFF854C1CCF81870544FBC4207D1524FEC
:1002C000BF6947F00807DFF840C1CCF81870504FFD
:1002D000BC4207D14C4FBF6947F01007DFF828C177
:1002E000CCF818704B4FBC4207D1474FBF6947F05D
:1002F0002007DFF814C1CCF81870474FBC4207D173
:10030000414FBF6947F04007DFF8FCC0CCF81870D8
:1003100000200F2900DD0120692A01D0492A02D1DD
:10032000032B00D10120032B00DD0120692A06D018
:10033000492A04D06F2A02D04F2A00D00120692A0E
:1003400001D0492A00D100266F2A01D04F2A00D1BE
:100350000126082928DA27684FEA810C0CF1020CE3
:100360004FF0030808FA0CF827EA08072760276807
:100370004FEA810C0CF1020C03FA0CFC47EA0C0763
:10038000276027684FEA81084FF0030C0CFA08FC3D
:1003900027EA0C07276027684FEA810C06FA0CFC55
:1003A00047EA0C0727602AE0A1F10807FDB2676859
:1003B0004FEA850C0CF1020C4FF0030808FA0CF818
:1003C00027EA0807676067684FEA850C0CF1020CA2
:1003D00003FA0CFC47EA0C07676067684FEA850878
:1003E0004FF0030C0CFA08FC27EA0C0767606768FB
:1003F0004FEA850C06FA0CFC47EA0C076760BDE87B
:10040000F08100000008014000100240000C014093
:100410000010014000140140001801402DE9F34F85
:100420008FB00646F948864205D1F948806940F404
:100430000060F7498861B6F1804F05D1F448C06982
:1004400040F00100F249C861F248864205D1F04807
:10045000C06940F00200EE49C861EF48864205D10C
:10046000EB48C06940F00400E949C8613046FFF735
:10047000F1FE0E900E9801F05CFB0A90109901F0CD
:1004800057F90B9001F094FB0022E44BCDE90C01ED
:1004900001F0D7FA044601F0CFFB8246504601F046
:1004A00087FB0022DE4BCDE90C0101F0CAFA0446BD
:1004B00001F0C2FB8146484601F066FB401C87B252
:1004C000384601F036FB04462146504601F062F9F9
:1004D0008046781E3085404601F056FB401EB085B0
:1004E000404601F051FB401EB0840E9801F026FBFF
:1004F000CDE90A01308D01F01CFB039001F058FB9F
:1005000004460022C74B01F083F9CDE90601B08D06
:1005100001F00FFB019001F04BFB04460022C14BA0
:1005200001F076F90022BD4BCDE9020101F017FA86
:10053000CDE90401DDE9062301F011FACDE9080156
:10054000DDE90A2301F07DFACDE90C0101F074FB2D
:10055000834611203080584611B0BDE8F08F2DE958
:10056000F04704460D46A948844205D1A848806951
:1005700040F40060A6498861B4F1804F05D1A448D9
:10058000C06940F00100A249C861A248844205D177
:100590009F48C06940F002009D49C8619E4884425E
:1005A00005D19B48C06940F004009949C861FFF734
:1005B0005CFE81462046FFF74DFEB9FBF0F8B5FB27
:1005C000F8F52E0C761CB5FBF6F7701E2085781E0C
:1005D000A085A08411202080BDE8F08710B58B4B4A
:1005E000984205D18A4B9B6943F40063884CA36110
:1005F000B0F1804F05D1864BDB6943F00103844C99
:10060000E361844B984205D1814BDB6943F00203DF
:100610007F4CE361804B984205D17D4BDB6943F011
:1006200004037B4CE361838943F0010383810F2939
:1006300000DD0F21754B98420DD17B4B1A600B07E3
:100640001C0E7A4B1C707A4B1B6843F000734FF002
:10065000E024C4F80031B0F1804F0DD1754B1A6021
:100660000B071C0E744B1C70714B1B6843F08053BE
:100670004FF0E024C4F80031664B98420DD16F4B27
:100680001A600B071C0E6E4B1C70694B1B6843F005
:1006900000534FF0E024C4F800315F4B98420DD175
:1006A000684B1A600B071C0E674B1C70604B1B6875
:1006B00043F080434FF0E024C4F8003110BD70B522
:1006C000524CA04205D1524CA46944F40064504DF0
:1006D000AC61B0F1804F05D14D4CE46944F00104A8
:1006E0004B4DEC614B4CA04205D1494CE46944F0C0
:1006F0000204474DEC61484CA04205D1444CE469EA
:1007000044F00404424DEC610F2A00DD0F223F4CFF
:10071000A0420BD11407250E4C4C2570444C246884
:1007200044F000644FF0E025C5F80041B0F1804F7F
:100730000BD11407250E404C25703D4C246844F025
:1007400080544FF0E025C5F80041324CA0420BD157
:100750001407250E3A4C2570354C246844F000549B
:100760004FF0E025C5F800412B4CA0420BD11407F7
:10077000250E354C25702E4C246844F080444FF0F3
:10078000E025C5F80041214CA04221D1012906D025
:1007900002290AD003290ED0042918D111E02C4CCB
:1007A000236001242B4D2C7011E02B4C236001247D
:1007B0002A4D2C700BE02A4C23600124294D2C700B
:1007C00005E0294C23600124284D2C7000BFACE0CB
:1007D000B0F1804F5FD1012906D002290AD0032948
:1007E0000ED0042956D14FE0214C23600124214D25
:1007F0002C704FE0204C23600124204D2C7049E0E8
:100800001F4C236001241F4D2C7043E0002C01403D
:1008100000100240000400400008004080842E4187
:100820000000F0400000F03F0000002019E400E06C
:1008300000E100E0040000201CE400E008000020CB
:100840001DE400E00C0000201EE400E01BE400E0DA
:1008500020000020100000202400002011000020B3
:1008600028000020120000202C000020130000208F
:10087000300000201400002034000020150000206B
:100880003800002016000020FE4C23600124FE4D9D
:100890002C7000BF49E0FD4CA04221D1012906D0B7
:1008A00002290AD003290ED0042918D111E0F84CEE
:1008B00023600124F74D2C7011E0F74C23600124D4
:1008C000F64D2C700BE0F64C23600124F54D2C7096
:1008D00005E0F54C23600124F44D2C7000BF24E0AA
:1008E000F34CA04221D1012906D002290AD00329C4
:1008F0000ED0042918D111E0EE4C23600124EE4DF6
:100900002C7011E0ED4C23600124ED4D2C700BE0B8
:10091000EC4C23600124EC4D2C7005E0EB4C236083
:100920000124EB4D2C7000BF00BF012901D002292A
:1009300011D1058B4C1E042606EBC4060724B440D7
:10094000A5430583058B4C1E042606EBC406012433
:10095000B44025430583032901D0042911D1858B97
:10096000CC1E042606EBC4060724B440A5438583A9
:10097000858BCC1E042606EBC4060124B440254317
:100980008583848901258D402C43848170BD70B599
:1009900004460D46164631462046FFF7E0FD012D80
:1009A00001D0022D18D1208B691ECA00032191406D
:1009B00088432083218B681E042202EBC00207209B
:1009C000904081432183218B681E042202EBC002E8
:1009D0000620904001432183032D01D0042D18D11E
:1009E000A08BE91ECA00032191408843A083A18BFC
:1009F000E81E042202EBC002072090408143A1833D
:100A0000A18BE81E042202EBC002062090400143A5
:100A1000A183218C681E012202EB800201209040FC
:100A200081432184208C691E8A0001219140084362
:100A30002084A848844205D1B4F8440040F4004022
:100A4000A4F84400A08D401C80B270BD2DE9F05F79
:100A5000804689469246504601F0AAF8064632463C
:100A60000B4600209C4900F0ECFF044601F0E4F83E
:100A7000834659464046FFF7D1FCB9F1010F02D039
:100A8000B9F1020F21D1B8F81800A9F10101CA008B
:100A9000032191408843A8F81800B8F81810A9F16C
:100AA0000100042202EBC002072090408143A8F815
:100AB0001810B8F81810A9F10100042202EBC002C6
:100AC000062090400143A8F81810B9F1030F02D096
:100AD000B9F1040F21D1B8F81C00A9F10301CA0033
:100AE000032191408843A8F81C00B8F81C10A9F114
:100AF0000300042202EBC002072090408143A8F8C3
:100B00001C10B8F81C10A9F10300042202EBC0026B
:100B1000062090400143A8F81C10B8F82010A9F155
:100B20000100012202EB8002012090408143A8F8DD
:100B30002010B8F82000A9F101018A00012191409C
:100B40000843A8F820006348804505D1B8F8440060
:100B500040F40040A8F84400B8F82C00401C80B2D3
:100B6000BDE8F09F5D49896941F400615B4A91618C
:100B7000584920310988421E9200921C012393405B
:100B80001943544A2032118011460988421E9200AE
:100B9000D21C0123934099434E4A20321180704762
:100BA00010B502464B4B9A4205D14C4B9B6943F41E
:100BB00000634A4CA361B2F1804F05D1474BDB691A
:100BC00043F00103454CE361304B9A4205D1434B5E
:100BD000DB6943F00203414CE361354B9A4205D196
:100BE0003E4BDB6943F004033C4CE3610020138976
:100BF00023F007031381012903D0022901D003291F
:100C000003D113890B43138100E00120138B23F0E0
:100C100003031383138B43F001031383138B23F418
:100C200040731383138B43F480731383138C23F06B
:100C300002031384138C23F020031384138823F0FE
:100C400001031380138843F0010313804FF6FF73F1
:100C5000938510BD2DE9F04F8FB004460D46174621
:100C60009846189E1B48844205D11C48806940F470
:100C700000601A498861B4F1804F35D11748C069C6
:100C80002EE000003C00002017000020000400407F
:100C9000400000201800002044000020190000201F
:100CA000480000201A0000204C0000201B000020FB
:100CB00000080040500000201C00002054000020CC
:100CC0001D000020580000201E0000205C000020B5
:100CD0001F000020002C014000408F400010024007
:100CE00040F00100FE49C861FE48844205D1FC483D
:100CF000C06940F00200FA49C861FB48844205D14E
:100D0000F748C06940F00400F549C8612046FFF784
:100D1000A1FA0020A085404600F00BFF059000F0EE
:100D200047FFCDE90801384600F042FFEF4AF04B9B
:100D3000CDE9040100F013FECDE90601DDE9082349
:100D400000F07FFECDE90A0100F076FF81460E98A3
:100D500000F0EFFE49460B9000F0EAFC8246504658
:100D600000F026FF0022E34BCDE90A0100F034FF3A
:100D700002D201200C908CE0504600F019FF0022B6
:100D8000DD4BCDE90A0100F03FFF02D201200C90BB
:100D90007FE0504600F0F8FE401E2085012D01D076
:100DA000022D0DD1208B691ECA000321914088437A
:100DB0002083208B691ECA000121914008432083B3
:100DC000032D01D0042D0DD1A08BE91ECA000321F3
:100DD00091408843A083A08BE91ECA000121914065
:100DE0000843A083218C681E012202EB80020120AF
:100DF000904081432184208C691E8A00012191400A
:100E0000084320840F2E00DD0F26BC4884420BD1FE
:100E10003007010EBA480170BA48006840F000601F
:100E20004FF0E021C1F80001B4F1804F0BD1300741
:100E3000010EB5480170B348006840F080504FF093
:100E4000E021C1F80001A74884420BD13007010E10
:100E5000AE480170AB48006840F000504FF0E02110
:100E6000C1F80001A04884420BD13007010EA84808
:100E70000170A448006840F080404FF0E021C1F8C4
:100E80000001A0894FF0010101FA05F140EA0100DB
:100E9000A0814FF001002080218D01F1010000F0C0
:100EA0003FFE059000F084FECDE908010E9800F0A9
:100EB00040FE019000F07CFECDE90401384600F0D0
:100EC00077FE8A4A8A4BCDE9000100F048FDCDE962
:100ED0000201DDE9042300F042FDCDE90601DDE970
:100EE000082300F0AEFDCDE90A0100F0A5FE0D904B
:100EF0000D9800F030FE1FFA80FB4FF6FF70A085C2
:100F000058460FB0BDE8F08F10B57C48103000880F
:100F100000F0020002282BD178481030008820F021
:100F200002007649103108807A480078012802D101
:100F300079480068804771482030008810F0020F1F
:100F400005D16E48343000887449088007E06B484A
:100F50003430008871490988401A7149088067480F
:100F60002030008880F0020064492031088097E03A
:100F700062481030008800F0040004282BD15F483C
:100F80001030008820F004005C491031088065486A
:100F90000078012802D16448006880475748203013
:100FA000008810F0200F05D15448383000885B4984
:100FB000488007E051483830008858494988401A2D
:100FC000574948804D482030008880F020004B4928
:100FD0002031088064E049481030008800F00800A3
:100FE00008282BD145481030008820F008004349DC
:100FF000103108804D480078032802D14C48006821
:1010000080473E482030008810F4007F05D13B48DF
:101010003C3000884149888007E038483C300088EF
:101020003E498988401A3E498880344820300088EB
:1010300080F4007031492031088031E02F481030B1
:10104000008800F0100010282AD12C4810300088A9
:1010500020F0100029491031088036480078012816
:1010600002D135480068804724482030008810F4B9
:10107000005F05D12148403000882849C88007E03A
:101080001E48403000882549C988401A2449C88034
:101090001A482030008880F4005018492031088018
:1010A00010BD10B515481030008820F0010013491C
:1010B0001031088021480068804710BD10B54FF0FE
:1010C0008040008A00F00100012842D18007808919
:1010D00000F0010001283CD18007008A30E00000C8
:1010E0000010024000040040000800408DEDB5A053
:1010F000F7C6B03E0000F03F0000F040002C014079
:101100001BE400E000E100E01CE400E01DE400E07E
:101110001EE400E0100000202000002080000020DD
:101120006000002011000020240000201200002098
:1011300028000020130000202C00002000000020C8
:1011400020F001004FF080410882FE48006880478F
:10115000C5E04FF08040008A00F0020002282AD14A
:101160004007008A20F002004FF080410882F648D4
:101170000078012802D1F548006880474FF0804090
:10118000008C10F0020F05D14FF08040808EF049A6
:10119000088007E04FF08040808EED490988401AB2
:1011A000EC4908804FF08040008C80F002004FF046
:1011B0008041088493E04FF08040008A00F00400F2
:1011C00004282AD10007008A20F004004FF0804153
:1011D0000882DD480078012802D1DF480068804796
:1011E0004FF08040008C10F0200F05D14FF0804070
:1011F000008FD749488007E04FF08040008FD449E6
:101200004988401AD34948804FF08040008C80F0D4
:1012100020004FF08041088461E04FF08040008A58
:1012200000F0080008282AD1C006008A20F0080033
:101230004FF080410882C9480078012802D1C8488F
:10124000006880474FF08040008C10F4007F05D18B
:101250004FF08040808FBE49888007E04FF080408B
:10126000808FBB498988401ABA4988804FF08040F6
:10127000008C80F400704FF0804108842FE04FF024
:101280008040008A00F01000102828D18006008AD3
:1012900020F010004FF080410882B2480078012809
:1012A00002D1B148006880474FF08040008C10F4B4
:1012B000005F04D1AD480088A549C88007E0AB486D
:1012C0000088A349C988A0EB0100A249C8804FF05B
:1012D0008040008C80F400504FF08041088410BDA5
:1012E00010B5A348008800F00100012810D1A048E3
:1012F000001F008800F00100012809D19C480088E7
:1013000020F001009A4908809A4800688047BEE0B2
:101310009748008800F00200022829D194480088EC
:1013200020F002009249088093480078012802D1F9
:101330009248006880478E481030008810F0020FF5
:1013400005D18B48243000888D49088007E0884803
:10135000243000888A490988401A8A4908808448CC
:101360001030008880F002008149103108808EE042
:101370007F48008800F00400042829D17C480088B8
:1013800020F004007A4908807F480078012802D1C3
:101390007E480068804776481030008810F0200FA3
:1013A00005D17348283000887549488007E07048A7
:1013B0002830008872494988401A724948806C4830
:1013C0001030008880F020006949103108805EE00C
:1013D0006748008800F00800082829D16448008880
:1013E00020F008006249088069480078012802D18D
:1013F0006848006880475E481030008810F4007F1D
:1014000005D15B482C3000885D49888007E058484A
:101410002C3000885A498988401A5A498880544893
:101420001030008880F400705149103108802EE09F
:101430004F48008800F01000102828D14C48008840
:1014400020F010004A49088053480078012802D152
:1014500052480068804746481030008810F4005F0A
:1014600005D14348303000884549C88007E04048EE
:10147000303000884249C988401A4249C8803C48F7
:101480001030008880F4005039491031088010BDB8
:1014900010B54348008800F00100012810D14048F1
:1014A000001F008800F00100012809D13C48008895
:1014B00020F001003A4908803A4800688047FAE085
:1014C0003748008800F00200022829D134480088FB
:1014D00020F002003249088033480078012802D108
:1014E0003248006880472E481030008810F0020F04
:1014F00005D12B48243000882D49088007E0284872
:10150000243000882A490988401A2A49088024483A
:101510001030008880F00200214910310880CAE0B4
:101520001F48008800F00400042865D11C4800888A
:1015300020F004001A4908801F480078012841D192
:101540001E483DE00400002015000020300000206F
:1015500088000020680000203400002016000020D1
:1015600038000020170000203C0000204000004010
:101570001004004008000020180000204000002057
:10158000900000207000002019000020440000207E
:101590001A000020480000201B0000204C00002002
:1015A000100800400C0000201C000020500000200B
:1015B00098000020780000201D000020540000202A
:1015C000006880474E48008810F0200F05D14C4835
:1015D000183000884B49488007E049481830008897
:1015E00048494988401A484948804548008880F061
:1015F0002000434908805EE041481038008800F030
:101600000800082828D13E481038008820F008003B
:101610003B49103908803D480078012802D13C48F8
:10162000006880473648008810F4007F05D13448B0
:101630001C3000883349888007E031481C3000881E
:1016400030498988401A304988802D48008880F4C4
:1016500000702B4908802EE029481038008800F0DF
:101660001000102827D126481038008820F01000DC
:1016700023491039088027480078012802D12648DC
:10168000006880471E48008810F4005F05D11C48A0
:10169000203000881B49C88007E0194820300088A6
:1016A0001849C988401A1849C8801548008880F42C
:1016B00000501349088010BD10B50246174B9A42DE
:1016C00004D14B1E164C34F8130017E0B2F1804FD2
:1016D00004D14B1E134C34F813000FE0124B9A4206
:1016E00004D14B1E114C34F8130007E0044B203B8F
:1016F0009A4203D14B1E044C34F8130010BD000075
:101700002008004098000020780000201E000020E3
:10171000580000201F0000205C000020002C014029
:1017200060000020680000200004004070000020DD
:1017300080EA010210B502F00043400022D04A00C6
:101740001FD0010E01EB1261C0F35600C2F3560226
:1017500040F4000042F40002A0FB022000047F39A4
:10176000140400D0401C50EA124001D44000491E2D
:10177000C2B20C0604EBD010401C4008802A02D0F4
:1017800003E0002010BD20F00100002900DA002055
:10179000184310BD30B480EA010202F0004530F079
:1017A000004221F0004013D090B1C30DD40DC2F31C
:1017B0001601C0F31600E41A41F4000140F40002DF
:1017C0007D34914201D3641C00E04900002C02DA10
:1017D00030BC002070474FF400000023914201D339
:1017E000891A034340084FEA4101F7D151B19142B0
:1017F00002D14FF0004105E002D24FF0010101E0BB
:101800006FF0010103EBC450284430BC00F051BA22
:101810002DE9FE4F804681EA0300C00F0C46009080
:1018200021F0004123F00045B8EB0200A94105D2A8
:101830004046214690461C460B46024623F0004097
:10184000104347D0270DC7F30A00C3F30A51029093
:10185000401A019040286BDAC3F3130040F4801B58
:101860000098924620B10023D2EB030A63EB0B0BE6
:1018700001985946C0F14002504600F0F9F9064679
:101880000D4650465946019A00F001FA10EB080047
:101890006141002487EA115284EAE7731A4340D079
:1018A000009A62B3019A012A4FEA075215DC001B25
:1018B00061EB02014FF0004202EA0752CDE900421B
:1018C000001C41F5801132462B4600F038FA03B077
:1018D000BDE8F08F40462146F9E7001B61EB0201AD
:1018E000001C41F5801300185B412018A2F5001779
:1018F00047EB030140EAD570B6196D4111E06D0860
:101900004FEA360645EAC0754FEA0752001B61EB05
:101910000201001C41F5801149084FEA300000190E
:10192000514132462B4603B0BDE8F04F00F0F8B904
:101930000098012240000023D0EB020263EBE07329
:10194000009821464FEAE074B8EB000061EB040117
:10195000E9E783F000435BE781F0004158E72DE9B8
:10196000FE4F81EA030404F0004421F0004100949A
:101970004FF0000B23F0004350EA01045ED052EA1E
:1019800003045BD0C3F30A54C1F30A552C44A4F2F8
:10199000F3340194A0FB0254C1F3130141F480110C
:1019A000C3F3130343F4801301FB024400FB034E13
:1019B000840A970A44EA815447EA8357A4FB0768DC
:1019C00002958D0A05FB07854FEA932C04FB0C5406
:1019D0002705029D4FEA065847EA1637B5EB08057A
:1019E0006EEB070C870E920E47EA811742EA8312CC
:1019F000A7FB0201B6EB0B0164EB00042B0D43EADD
:101A00000C335E1844EB1C50DA465146E7FB0201EA
:101A1000C5F313044FEA0B3343EA14534FEA04327D
:101A2000019C43EA0603A4F10C040294009CCDE956
:101A300000B400F084F903B0BDE8F08F0020014647
:101A4000F9E72DE9F04D81EA030404F0004B21F0A1
:101A5000004514464FF0000A23F0004150EA050209
:101A600020D054EA01021DD0C5F30A570246C5F33F
:101A70001303C1F31300C1F30A5640F4801543F475
:101A80008013A7EB0608101BD64608F2FD3873EB4F
:101A9000050002D308F1010801E092185B41B8F19A
:101AA000000F03DA00200146BDE8F08D00204FF45E
:101AB0008011064684460EE0171B73EB050705D31D
:101AC000121B63EB050306434CEA010C49084FEA7D
:101AD000300092185B4150EA0107EDD152EA030051
:101AE00012D082EA040083EA0501084305D0101BE6
:101AF000AB4106D20122002306E000224FF0004352
:101B000002E06FF0010253101AEB06004CEB085193
:101B100010EB0A0041EB0B01BDE8F04D00F000B9FD
:101B2000C10F80EAE0700844CA079623002100F044
:101B3000C9B896230022114600F0C4B80EB540F291
:101B4000334102910021CDE900110A460B4600F015
:101B5000F6F803B000BD00F0004220F00040C10DD7
:101B6000C0F3160040F400007F2901DA002070471E
:101B7000962903DCC1F19601C84001E096398840FE
:101B8000002AF4D04042704720F00040C10DC0F35D
:101B9000160040F400007F2901DA002070479629E2
:101BA00003DCC1F19601C840704796398840704700
:101BB00000F0004230F000400AD0C10D01F5607124
:101BC000C0F3160042EA0151C208400711437047B2
:101BD000002001467047000030B5041E71F100047A
:101BE00004DB4FF00044404264EB0101141E73F12A
:101BF000000405DB1C464FF00043524263EB040334
:101C00008B4208BF824230BD30B5041E71F1000422
:101C100004DB4FF00044404264EB0101141E73F1F9
:101C2000000405DB1C464FF00043524263EB040303
:101C3000994208BF904230BD01F0004330B421F01A
:101C4000004150EA010206D00A0DA2F56072C1F30C
:101C50001301002A02DC30BC00207047440F44EA24
:101C6000C104C100E01830BC00EBC25000F021B844
:101C7000202A04DB203A00FA02F10020704791404C
:101C8000C2F1200320FA03F3194390407047202A41
:101C900006DBCB17203A41FA02F043EAE07306E094
:101CA00041FA02F3D040C2F12002914008431946A4
:101CB00070470029A8BF7047401C490008BF20F0AA
:101CC0000100704710B4B0FA80FC00FA0CF050EA42
:101CD000010404BF10BC704749B1CCF1200421FAC3
:101CE00004F411FA0CF118BF012121430843A3EBBE
:101CF0000C01CB1D4FEA00614FEA102042BF0020CB
:101D000010BC704700EBC35010440029A4BF10BCA6
:101D10007047401C490008BF20F0010010BC70470C
:101D200010B5141E73F1000408DA401C41F10001E3
:101D300092185B411A4301D120F0010010BD2DE93A
:101D4000F04D92469B4611B1B1FA81F202E0B0FA31
:101D500080F220329046FFF78BFF04460F4640EAA0
:101D60000A0041EA0B0153465A46084313D0114674
:101D700053EA010019D0C8F14002504600F040F883
:101D800005460E46504659464246FFF771FF084346
:101D900005D0012004E020463946BDE8F08D002042
:101DA000054346EAE0762C4337430A986305E40A84
:101DB000A0EB08000022FD0A44EA47540A3002D58D
:101DC00000200146E9E7010510196941DDE90845F0
:101DD00000196941BDE8F04DA2E70000064C074D2F
:101DE00006E0E06840F0010394E8070098471034EB
:101DF000AC42F6D3FEF77EF9B41E0008D41E0008EC
:101E0000202A04DB203A21FA02F00021704721FA4F
:101E100002F3D040C2F120029140084319467047B6
:101E200002E008C8121F08C1002AFAD170477047A3
:101E3000002001E001C1121F002AFBD17047000001
:101E4000FEF7C0F900236F2201210A48FEF726FAA7
:101E5000094C21460948FEF782FB094A022107483E
:101E6000FEF7BCFB0548008840F0010003490880EC
:101E700000BFFEE7000C01404019010000080040CF
:101E8000851E00080948026802B13AB9084B4FF0B4
:101E9000020119604FF0010202607047044B4FF4D9
:101EA000003119604FF0000202607047A00000206E
:101EB000100C0140D41E000800000020A400000007
:101EC000201E0008781F0008A40000200404000061
:101ED000301E0008000000000000000000000000AC
:101EE00000000000000000000000000000000000F2
:101EF00000000000000000000000000000000000E2
:101F000000000000000000000000000000000000D1
:101F100000000000000000000000000000000000C1
:101F200000000000000000000000000000000000B1
:101F300000000000000000000000000000000000A1
:101F40000000000000000000000000000000000091
:101F50000000000000000000000000000000000081
:101F60000000000000000000000000000000000071
:081F7000000000000000000069
:04000005080000ED02
:00000001FF
